:100000000C9435000C945D000C945D000C945D0024
:100010000C945D000C945D000C945D000C945D00EC
:100020000C945D000C945D000C945D000C945D00DC
:100030000C945D000C945D000C945D000C945D00CC
:100040000C94A9020C945D000C94B5010C94E7018A
:100050000C945D000C945D000C945D000C945D00AC
:100060000C945D000C945D00170211241FBECFEFAD
:10007000D8E0DEBFCDBF11E0A0E0B1E0E4E7F7E0FB
:1000800002C005900D92AC32B107D9F721E0ACE285
:10009000B1E001C01D92A23DB207E1F710E0C5E357
:1000A000D0E004C02197FE010E94B203C433D107FF
:1000B000C9F70E949A020C94B8030C94000026E041
:1000C00040E855E260E070E08CE291E00C94500171
:1000D00060E071E08CE291E00E94870268EC70E0E1
:1000E00080E090E00C941803FC01918D228D892F03
:1000F00090E0805C9F4F821B91098F739927089530
:10010000FC01918D828D981731F0828DE80FF11DE1
:10011000858D90E008958FEF9FEF0895FC01918DFC
:10012000828D981761F0828DDF01A80FB11D5D9659
:100130008C91928D9F5F9F73928F90E008958FEFC7
:100140009FEF0895FC01538D448D252F30E0842FBF
:1001500090E0821B930B541710F0CF9608950197EF
:1001600008958DE092E0892B49F080E090E0892BA2
:1001700029F00E940D0281110C9400000895FC01E9
:10018000848DDF01A80FB11DA35ABF4F2C91848D20
:1001900090E001968F739927848FA689B7892C9355
:1001A000A089B1898C91837080648C93938D848DA8
:1001B000981306C00288F389E02D80818F7D8083AB
:1001C0000895EF92FF920F931F93CF93DF93EC016B
:1001D00081E0888F9B8D8C8D981305C0E889F98903
:1001E000808185FD26C0F62E0B8D10E00F5F1F4F1E
:1001F0000F731127E02E8C8DE8120CC00FB607FC90
:10020000FACFE889F989808185FFF5CFCE010E9478
:10021000BF00F1CF8B8DFE01E80FF11DE35AFF4FB8
:10022000F0829FB7F8940B8FEA89FB898081806206
:100230000AC09FB7F894EE89FF896083E889F9893D
:1002400080818370806480839FBF81E090E0DF9134
:10025000CF911F910F91FF90EF900895CF93DF936F
:10026000EC01888D8823C9F0EA89FB89808185FDAE
:1002700005C0A889B9898C9186FD0FC00FB607FC0F
:10028000F5CF808185FFF2CFA889B9898C9185FF50
:10029000EDCFCE010E94BF00E7CFDF91CF9108954F
:1002A000CF92DF92EF92FF921F93CF93DF93EC01F7
:1002B0006A017B01122FE889F98982E08083411568
:1002C000514E61057105B1F060E079E08DE390E099
:1002D000A70196010E949003DA01C9010197A109C3
:1002E000B109B695A795979587959C01211580E151
:1002F0003807A8F0E889F989108260E874E88EE18F
:1003000090E0A70196010E949003DA01C9010197CC
:10031000A109B109B695A795979587959C01EC859C
:10032000FD853083EE85FF852083188EEC89FD895D
:100330001083EA89FB89808180618083EA89FB8957
:10034000808188608083EA89FB89808180688083DE
:10035000EA89FB8980818F7D8083DF91CF911F9116
:10036000FF90EF90DF90CF9008951F920F920FB6FD
:100370000F9211242F938F939F93EF93FF93E0910C
:100380003C01F0913D018081E0914201F0914301F7
:1003900082FD12C09081809145018F5F8F73209103
:1003A0004601821751F0E0914501F0E0E45DFE4F17
:1003B000958F8093450101C08081FF91EF919F91BE
:1003C0008F912F910F900FBE0F901F9018951F9235
:1003D0000F920FB60F9211242F933F934F935F9379
:1003E0006F937F938F939F93AF93BF93EF93FF93FD
:1003F0008CE291E00E94BF00FF91EF91BF91AF911D
:100400009F918F917F916F915F914F913F912F912C
:100410000F900FBE0F901F9018958CE291E00E94F4
:10042000740021E0892B09F420E0822F0895ECE28A
:10043000F1E01382128288EE93E0A0E0B0E08483C2
:100440009583A683B7838FE091E09183808385ECC9
:1004500090E09587848784EC90E09787868780EC8E
:1004600090E0918B808B81EC90E0938B828B82EC7F
:1004700090E0958B848B86EC90E0978B868B118E29
:10048000128E138E148E0895CF92DF92EF92FF9208
:100490000F931F93CF93DF936C017A018B01C0E020
:1004A000D0E0CE15DF0581F0D8016D918D01D60128
:1004B000ED91FC910190F081E02DC6010995892B09
:1004C00011F02196EECF7E01C701DF91CF911F91F0
:1004D0000F91FF90EF90DF90CF9008956115710517
:1004E00079F0FB0101900020E9F73197AF01461B3D
:1004F000570BDC01ED91FC910280F381E02D099412
:1005000080E090E008956DE171E00C946E020F932D
:100510001F93CF93DF93EC010E946E028C01CE01FA
:100520000E948302800F911FDF91CF911F910F9145
:10053000089508950E9454030E9499020E945F004A
:10054000C1EBD0E00E9468002097E1F30E94B10067
:10055000F9CF1F920F920FB60F9211242F933F9352
:100560008F939F93AF93BF938091CA019091CB01DA
:10057000A091CC01B091CD013091C90123E0230FAE
:100580002D3720F40196A11DB11D05C026E8230FCB
:100590000296A11DB11D2093C9018093CA019093B9
:1005A000CB01A093CC01B093CD018091CE0190916D
:1005B000CF01A091D001B091D1010196A11DB11D33
:1005C0008093CE019093CF01A093D001B093D1013D
:1005D000BF91AF919F918F913F912F910F900FBE3F
:1005E0000F901F9018953FB7F8948091CE0190918D
:1005F000CF01A091D001B091D10126B5A89B05C033
:100600002F3F19F00196A11DB11D3FBFBA2FA92F91
:10061000982F8827820F911DA11DB11DBC01CD010E
:1006200042E0660F771F881F991F4A95D1F70895FA
:100630008F929F92AF92BF92CF92DF92EF92FF92F2
:100640006B017C010E94F3024B015C01C114D104D7
:10065000E104F10401F10E948F030E94F302DC0126
:10066000CB0188199909AA09BB09883E9340A105C5
:10067000B10560F321E0C21AD108E108F10888EE63
:10068000880E83E0981EA11CB11CC114D104E104A2
:10069000F10419F7DBCFFF90EF90DF90CF90BF9080
:1006A000AF909F908F900895789484B5826084BDB8
:1006B00084B5816084BD85B5826085BD85B5816066
:1006C00085BDEEE6F0E0808181608083E1E8F0E0C6
:1006D0001082808182608083808181608083E0E8F5
:1006E000F0E0808181608083E1EBF0E080818460D4
:1006F0008083E0EBF0E0808181608083EAE7F0E0D6
:100700008081846080838081826080838081816039
:1007100080838081806880831092C100089508954D
:10072000A1E21A2EAA1BBB1BFD010DC0AA1FBB1FF5
:10073000EE1FFF1FA217B307E407F50720F0A21B67
:10074000B30BE40BF50B661F771F881F991F1A94D4
:1007500069F760957095809590959B01AC01BD01FE
:10076000CF010895EE0FFF1F0590F491E02D09943D
:04077000F894FFCF2B
:10077400616161626262616262610000000000E1C5
:10078400004402A2002E0174008E0080000D0A00B5
:0C0794006E616E00696E66006F76660094
:00000001FF
